:020000020000FC
:100000000C9402000FEF0DBF01E20EBF0FEF00BB1B
:1000100001B9002701BB02B908E376D085D09ED094
:1000200008E372D081D091D008E36ED07DD008E390
:100030006BD07AD008E068D077D001E065D074D07A
:1000400006E062D071D00EE05FD06ED002E363D0E4
:100050006BD001E360D068D002E35DD065D001E3EE
:100060005AD062D000E257D05FD001E354D05CD0C8
:1000700007E351D059D003E74ED056D001E34BD01F
:1000800053D000E248D050D000E245D04DD000E23D
:1000900042D04AD00CE43FD047D001E33CD044D01A
:1000A00002E339D041D000EC2FD03ED006E533D06A
:1000B0003BD005E630D038D00EE62DD035D004E662
:1000C0002AD032D009E627D02FD00EE624D02CD06B
:1000D00007E621D029D000E21ED026D00DE41BD0A7
:1000E00023D001E618D020D003E615D01DD008E6B5
:1000F00012D01AD009E60FD017D00EE60CD014D0CB
:1001000005E609D011D0FFCF01BB1FD0169A1DD034
:1001100016981BD0089501BB179A17D0169A15D0C0
:10012000169813D0179808950F93002700BB01BBB2
:10013000159A0BD0169A09D00FB1169807FDF9CF72
:1001400015980FEF00BB0F9108958F939F939FE039
:100150008CE90197F1F79F918F910895F6DFF5DF14
:08016000F4DFF3DFF2DF089584
:00000001FF
