:020000020000FC
:0C0000000C9433000C9432000C9432007D
:10005C000C945D000C94320018950FEF0DBF01E26B
:10006C000EBF78940FEF00BB01B9002701BB02B99A
:10007C0028E342D151D16AD128E33ED14DD15DD193
:10008C0028E33AD149D128E337D146D128E034D1FD
:10009C0043D121E031D140D126E02ED13DD12CE00D
:1000AC002BD13AD160EF60930A0101E00EC08F931F
:1000BC009F938091120290911302019680931202E9
:1000CC00909313029F918F91189500E004BD02E06C
:1000DC0005BD01E000936E0090E037D063D0C2E123
:1000EC00D2E00027099308830027BDD0013021F00E
:1000FC00CCD09F3009F4F9CF21E0FED00DD123E50F
:10010C0002D10AD125E6FFD007D12CE6FCD004D1D0
:10011C0025E6F9D001D123E6F6D0FED024E7F3D0C2
:10012C00FBD020E2F0D0F8D029E6EDD0F5D024E7D2
:10013C00EAD0F2D025E6E7D0EFD02DE6E4D0ECD033
:10014C009E5D292FE0D0E8D0FFCFDF93CF930F93A4
:10015C00D2E0C0E001E0099301E0099301E00993CA
:10016C0002E0099303E0099301E0099304E0099389
:10017C0002E0099305E0099301E0099306E0099375
:10018C0002E0099307E0099301E0099308E0099361
:10019C0002E0099309E0099301E008830F91CF91E4
:1001AC00DF91089521E0A8D0B7D022E3ACD0B4D031
:1001BC0021E3A9D0B1D022E3A6D0AED021E3A3D0C5
:1001CC00ABD020E2A0D0A8D021E39DD0A5D027E3CE
:1001DC009AD0A2D023E797D09FD021E394D09CD083
:1001EC0020E291D099D020E28ED096D020E28BD014
:1001FC0093D02CE488D090D021E385D08DD022E30D
:10020C0082D08AD020EC78D087D026E57CD084D0E0
:10021C0025E679D081D02EE676D07ED024E673D038
:10022C007BD029E670D078D02EE66DD075D027E63D
:10023C006AD072D020E267D06FD02DE464D06CD03D
:10024C0021E661D069D023E65ED066D028E65BD08B
:10025C0063D029E658D060D02EE655D05DD025E687
:10026C0052D05AD008958F939F93809112029091FF
:10027C0013028C380BE5900721F000E09F918F91D1
:10028C00089501E09F918F9108950F931F933F93D1
:10029C004F935F936F935FEE3327343029F1509374
:1002AC000B016FEF6A95F1F7609109016F706F3078
:1002BC0059F041E01127143039F0062F042341F096
:1002CC001395440F0C946101550F33950C94530105
:1002DC00133039F0612F660F610F630F6F5F0C9451
:1002EC007A01313001F060E3962F6F915F914F915D
:1002FC003F911F910F91089521BB1FD0169A1DD0CD
:10030C0016981BD0089521BB179A17D0169A15D0A2
:10031C00169813D0179808952F93222720BB21BB32
:10032C00159A0BD0169A09D02FB1169827FDF9CF34
:10033C0015982FEF20BB2F9108958F939F939FE0DB
:10034C008CE90197F1F79F918F910895F6DFF5DF16
:08035C00F4DFF3DFF2DF089586
:00000001FF
