:020000020000FC
:0C0000000C9445000C94F5010C940802CF
:04005C000C943001CF
:100074000C941A023134323331313238313232395C
:10008400313432333132CFEFD1E2DEBFCDBF0FEFA7
:1000940007B9002708B9C2E0D2E000270993088312
:1000A400C0E0D2E0002709930883C4E0D2E000272F
:1000B40009930883002704B905B90FEF00BB01B900
:1000C400002701BB02B970EF70930A0128E344D4FE
:1000D40053D46CD428E340D44FD45FD428E33CD425
:1000E4004BD428E339D448D428E036D445D421E08D
:1000F40033D442D426E030D43FD42CE02DD43CD4A5
:1001040022E331D439D421E32ED436D422E32BD4C0
:1001140033D421E328D430D420E225D42DD421E3D0
:1001240022D42AD427E31FD427D423E71CD424D4ED
:1001340021E319D421D420E216D41ED420E213D40E
:100144001BD420E210D418D42CE40DD415D421E30C
:100154000AD412D422E307D40FD420ECFDD30CD458
:1001640026E501D409D425E6FED306D42EE6FBD336
:1001740003D424E6F8D300D429E6F5D3FDD32EE640
:10018400F2D3FAD327E6EFD3F7D320E2ECD3F4D3B8
:100194002DE4E9D3F1D321E6E6D3EED323E6E3D38A
:1001A400EBD328E6E0D3E8D329E6DDD3E5D32EE686
:1001B400DAD3E2D325E6D7D3DFD3CEC1FFCF4427AA
:1001C400002700E00EB90F91DDC011270F930091B5
:1001D40006020030A1F3463071F00A95009306023E
:1001E4000091070206950093070208B946E000E172
:1001F4000EB90F9106C044E000E00EB90F9101C0A2
:10020400112780910002909101020196803D07E040
:10021400090769F4C0E0D2E0002709930883173086
:10022400A1F2443099F2463089F24427ABC080935E
:100234000002909301021730E1F14430E9F04430B8
:10024400D9F0A0C04730D1F1483099F14930C9F212
:100254004A30B9F24130A9F295C0D3CF0FB70F930A
:10026400DF93CF939F938F93173059F2163031F168
:10027400443039F2463029F2193021F3183009F2AA
:10028400153099F0113081F11230A1F01330A1F042
:100294001430B1F0413009F3453031F13327C2E075
:1002A400D2E00027099308836DC00FEF08B913E06B
:1002B4004CC068C00C94A4010C94A7010C943F0298
:1002C4004330B9F33196EC3201E0F00761F400EC0D
:1002D40000937C0008E000937B000DEC00937A000F
:1002E400EE27FF274FC04EC0413041F380910202F8
:1002F40090910302019684380EE1900751F4C2E014
:10030400D2E0002709930883453041F0113059F0B9
:1003140039C0809302029093030234C0442733957A
:10032400323029F02FC03395333029F02BC04427C5
:1003340018E0332727C01127442733270EB100E0E4
:100344000EB99BC00FEF08B913E08091040290919D
:100354000502019682340FE0900781F4C4E0D2E0F4
:1003640000270993088300C0353029F33395032F00
:100374000170003039F3002708B904C080930402E7
:10038400909305028F919F91CF91DF910F910FBFB1
:1003940018954930D1F14830C1F1BA30B1F10F9319
:1003A4000FB70F93CF93DF93B3952197B88348E0AA
:1003B400DF91CF910F910FBF0F911895493029F11B
:1003C400483019F1B03009F10F930FB70F93CF9361
:1003D400DF93BA952197B88348E0DF91CF910F91CD
:1003E4000FBF0F9118951930A1F2423071F40F9399
:1003F4000FB70F93C4E0D2E00027099308830027C6
:1004040008B90F910FBF0F9138C018951930B1F288
:100414004230D9F70F930FB70F93C4E0D2E000270F
:1004240009930883002708B90F910FBF0F9125C0C6
:10043400433089F00F930FB70F939F938F9380915D
:10044400780090917900803000E0900751F08F3F60
:1004540003E0900771F08F919F910F910FBF0F915F
:100464001895B030C1F73395B1E03230A1F743E0CD
:10047400F2CFB13081F7BB27EECF21E06DD27CD231
:1004840023E571D279D225E66ED276D22CE66BD2F0
:1004940073D225E668D270D223E665D26DD224E702
:1004A40062D26AD220E25FD267D229E65CD264D2F9
:1004B40024E759D261D225E656D25ED22DE653D234
:1004C4005BD220EC49D258D271D2413071F1423022
:1004D400C9F0473021F0332717E054CF76CEC4E07B
:1004E400D2E0002709930883C0E0D2E000270993F3
:1004F4000883C2E0D2E00027099308833327442706
:10050400112740CFC4E0D2E0002709930883C0E05C
:10051400D2E0002709930883C2E0D2E000270993C0
:100524000883332744271127189511273327C4E05C
:10053400D2E0002709930883C2E0D2E000270993A0
:100544000883C0E0D2E00027099308835ACECCC0C8
:100554004427CDC04427CBC00AE0009369000DB303
:1005640003600DBB3327442711E0002704BD02E0DC
:1005740005BD01E000936E007894F0E0EAE831975D
:10058400D2E0C9E03F933327049100533197339568
:1005940009933231C9F7EE27FF273F9148B99FEEFF
:1005A4005527002777278827183089F24130B1F37F
:1005B4004230A1F3433039F1483051F2493071F3FC
:1005C4004A3061F3123051F3133041F3163031F3F2
:1005D400173021F3473011F3543001F390930B019A
:1005E4007FEF7A95F1F7709109017F707F3069F0A0
:1005F400A1E06627643049F0872F8A2351F0639580
:10060400AA0F0C94FC0243E053C1990F53950C9428
:10061400EE02533049F0633099F1762F770F760F5D
:10062400750F7F5F0C946803193019F041E00C9446
:10063400D002603039F0613071F06230A9F041E0ED
:100644000C94D002809108028330C9F38395888387
:1006540048E00C94D00280910802803081F38A959E
:10066400888348E00C94D0020F93CF93DF932197B3
:1006740000270883DF91CF910F9148E00C94D002BA
:100684005030C9F05130F9F0143029F0193089F0A4
:1006940041E00C94D00244E0DF91CF913F91BF91AF
:1006A4008F917F917093060230930702332716E0EF
:1006B40075CF47E073CF103019F041E00C94D002AD
:1006C40045E00C94D00241E00C94D002143051F077
:1006D40041E0113039F0193011F07F9364C00F916B
:1006E4007F9305C00C94D00271E019E07F937F9151
:1006F40021E032D141D121E436D13ED124E633D1B7
:100704003BD12DE630D138D129E62DD135D12EE695
:100714002AD132D120E227D12FD12DE624D12CD1D8
:100724002FE621D129D124E61ED126D125E61BD1DD
:1007340023D120E218D120D1272F205D14D11CD140
:100744007F9331C0000F0395BA95B030D9F708B93B
:10075400BF9120EC01D110D12B2F205D04D10CD1FD
:1007640020E201D109D120E2FED006D120E2FBD063
:1007740003D120E2F8D000D120E2F5D0FDD020E270
:10078400F2D0FAD020E2EFD0F7D020E2ECD0F4D0CF
:1007940024E2E9D0F1D080910802282F205DE3D033
:1007A400EBD049E0FBCED2E0C9E07A957030E9F1B4
:1007B4002296FBCF002708B9B03059F2BF93C2CFBD
:1007C4007F9121E0C9D0D8D02FE4CDD0D5D025E772
:1007D400CAD0D2D024E7C7D0CFD020E2C4D0CCD066
:1007E4002FE6C1D0C9D026E6BED0C6D020E2BBD009
:1007F400C3D023E7B8D0C0D024E7B5D0BDD02FE60E
:10080400B2D0BAD023E6AFD0B7D02BE6ACD0B4D0B8
:1008140020ECA2D0B1D0272F205DA5D0ADD0C6D07A
:10082400332742E012E0BACEC5CF0991B02F8881B8
:10083400809308021930C1F3003011F2772721E0C8
:100844008BD09AD029E48FD097D02EE68CD094D038
:1008540023E789D091D025E686D08ED022E783D0B5
:100864008BD024E780D088D020E27DD085D023E6C9
:100874007AD082D02FE677D07FD029E674D07CD08E
:100884002EE671D079D023E76ED076D020EC64D0F8
:1008940073D0282F205D67D06FD07F938F93BF9341
:1008A4003F93CF93DF9333278827BB2714E0442754
:1008B4004330A1F400E400937A004427DF91CF9100
:1008C4003F91BF918F917F917395330F339538B9D1
:1008D4008150803011F4112703C0B1CF0C94D002A1
:1008E400B150BA93332721E037D046D024E43BD02B
:1008F40043D025E638D040D02CE635D03DD029E68B
:1009040032D03AD026E72FD037D025E62CD034D0B9
:1009140022E729D031D029E626D02ED02EE623D0C6
:100924002BD027E620D028D020E21DD025D029E6E0
:100934001AD022D024E717D01FD025E614D01CD01B
:100944002DE611D019D020EC07D016D000E10DB956
:100954000EB915E041E0C2CF21BB1FD0169A1DD0BD
:1009640016981BD0089521BB179A17D0169A15D044
:10097400169813D0179808952F93222720BB21BBD4
:10098400159A0BD0169A09D02FB1169827FDF9CFD6
:1009940015982FEF20BB2F9108958F939F939FE07D
:1009A4008CE90197F1F79F918F910895F6DFF5DFB8
:0809B400F4DFF3DFF2DF089528
:00000001FF
